:020000022000DC
:10600000000004207DEB0300BDEB0300BFEB0300A9
:10601000C1EB0300C3EB0300C5EB0300000000006D
:10602000000000000000000000000000F9EA03008A
:10603000C9EB03000000000019EB0300CDEB0300E7
:106040001DED0300CFEB0300F1030400ED6F03002F
:10605000A5700300CFEB030089C60300CFEB03005C
:10606000CFEB0300CFEB0300CFEB0300CFEB03003C
:10607000CFEB0300CFEB0300CFEB0300CFEB03002C
:10608000CFEB030049E80300CFEB0300CFEB0300A5
:10609000CFEB0300CFEB0300CFEB0300CFEB03000C
:1060A000CFEB0300CFEB0300CFEB0300CFEB0300FC
:1060B000CFEB0300CFEB0300000000000000000066
:1060C000CFEB0300CFEB0300CFEB030031F2030073
:1060D000CFEB0300CFEB0300CFEB0300417E0300C7
:1060E0003D040400CFEB0300CFEB030000000000F1
:1060F00000000000CFEB030000000000A9F2030045
:10610000000000000000000000000000000000008F
:10611000000000000000000000000000000000007F
:10612000000000000000000000000000000000006F
:10613000000000000000000000000000000000005F
:10614000000000000000000000000000000000004F
:10615000000000000000000000000000000000003F
:10616000000000000000000000000000000000002F
:10617000000000000000000000000000000000001F
:10618000000000000000000000000000000000000F
:1061900000000000000000000000000000000000FF
:1061A00000000000000000000000000000000000EF
:1061B00000000000000000000000000000000000DF
:1061C00000000000000000000000000000000000CF
:1061D00000000000000000000000000000000000BF
:1061E00000000000000000000000000000000000AF
:1061F000000000000000000000000000000000009F
:10620000F1EE103A43F08073E1EE103A704700BFB0
:1062100010B5054C237833B9044B13B10448AFF3E0
:1062200000800123237010BDD46400200000000012
:106230008056040008B5034B1BB103490348AFF374
:10624000008008BD00000000D864002080560400D3
:10625000154B002B08BF134B9D46A3F5803A002138
:106260008B460F461348144A121A1BF055F90F4B70
:10627000002B00D098470E4B002B00D098470020F1
:10628000002104000D000D48002802D00C48AFF397
:1062900000801BF0E5F82000290018F0C7FC1BF077
:1062A000B9F800BF00000800000004200000000052
:1062B00000000000D4640020F8AA002000000000C4
:1062C0000000000010B5074C0749204615F08CFF70
:1062D0000649204615F088FF20460549BDE81040D4
:1062E00015F082BF448D0020EC42040000430400FE
:1062F0002043040010B50468027AB0F9063006495C
:1063000084B0CDE90124009303794279034815F064
:10631000BBFF04B010BD00BF40430400448D00200B
:1063200008B5094B09491A5C094815F0ADFF094B3E
:1063300009481B784371094A00230371BDE80840EE
:10634000117804F043BF00BFA0430400844304005D
:10635000448D00203660002004600020296D00205C
:106360002DE9F0419F4DA04C2B7822780F2B84B063
:1063700011D90F2A40F20F819C48237000F038FD9C
:106380009B499C4815F030FF04F012FF01280FD004
:1063900004B0BDE8F0810F2AEED9944844F620619C
:1063A00000F03EFD9449934815F01EFF2B78E3E77B
:1063B000924E4FF47A72002130681BF0ADF8904A8B
:1063C0003368127872717B221A7032688D4B8E4856
:1063D0002221517032686D21917032686521D1702F
:1063E000326801F1222101F568115060916003F5D6
:1063F0007A7E0C2404F1640C1A4605E03768614586
:10640000385500F0BB800C4612F8010F611C0028C3
:10641000F4D164339E45EDD17C487D498768D0E94D
:1064200000321A4417FA82F2D0E9037317FA82F2A3
:1064300013FA82F2D0E9057317FA82F2D0E907C79E
:1064400013FA82F21CFA82F2436A17FA82F213FA02
:1064500082F292B2A1FB0232D2086E492A7001A8E0
:106460001BF014FF01A81BF039FF002851D09DF844
:106470000430002B40F0888001284AD99DF805306F
:10648000002B40F09380022843D99DF80630002B62
:1064900040F0938003283CD99DF807302BB1326837
:1064A00001A8135501341BF019FF042831D99DF8B8
:1064B00008302BB1326801A8135501341BF00EFFD0
:1064C000052826D99DF809302BB1326801A813554B
:1064D00001341BF003FF06281BD99DF80A302BB1AD
:1064E000326801A8135501341BF0F8FE072810D9B3
:1064F0009DF80B302BB1326801A813551BF0EEFE4E
:106500000134092805D19DF80C3013B132681355B8
:10651000013433684049374822221A5533682344EE
:106520007D2202345A7015F0AFFE64B1DFF80C81A1
:10653000304F0025336841465A5D3846013515F025
:10654000A3FEA542F6D135492A4815F09DFE344BED
:106550002A481978347104F039FE00283FD0012808
:1065600032D001307FF414AF2E4C327923682E499B
:1065700020480133236015F087FE09E764339E4508
:1065800064467FF437AF47E7326801A813550134FA
:106590001BF0A4FE70E7154842F2107100F040FCB9
:1065A0002249144815F020FE2B78E5E6326801A850
:1065B000135501341BF092FE65E7326801A81355AC
:1065C00001341BF08BFE65E7164B19491A68094820
:1065D00001321A6015F058FE04B0BDE8F081154B89
:1065E0001549F3E73460002058600020F868002067
:1065F000C4430400448D0020A44304000460002030
:10660000366000203B6900207373616710690020C9
:10661000CDCCCCCCDC430400E4430400184504009A
:10662000296D0020F064002030440400B4430400CD
:1066300010440400DC680020F8430400F443040024
:1066400008B5104B1B782BB90F4B187804F00EFED1
:1066500050B108BD0D490E4815F0C6FD0A4B18781B
:1066600004F004FE0028F4D14FF47A7016F05AF8C2
:10667000084842F2107100F0D3FBBDE8084005481D
:1066800000F0B6BB35600020286D0020584404009F
:10669000448D0020F86800202DE9F047012188B0E2
:1066A000232019F015FB0021232019F095FB16F08B
:1066B0002DF880464D484FF4E13181464FF0000AF5
:1066C00011F06EF841F2873600270EE016F01EF842
:1066D0000023B0EB080463EB0A05A64277EB050341
:1066E0004FF0640006DB16F01DF8484611F070F814
:1066F0000028EBD03E4E3F4F06F110050FCD6C4603
:106700000FC495E80F0084E80F0096E80F0000F032
:1067100005FA394810F060FB18223749374810F065
:106720006DFE3021354810F055FE00F061FA344915
:106730002E4815F059FD33492C4815F055FD3B788E
:10674000002B4DD1304C2378012B39D0082B03D1AD
:106750002E49264815F048FD2949244815F044FDE6
:106760002B492C4800F0FAFA2B492048002215F05A
:106770008BFD3B784BBB294920780978284ACDE925
:10678000001006CA274804F04FFB88B9022019F010
:1067900041FA0C2019F038FA012015F0C3FF224B02
:1067A000186819F067FA08B0BDE8F04704F0A4BC17
:1067B00002461E490D4808B0BDE8F04715F064BD1B
:1067C0001B490A4815F010FDC6E71A4804F070FA94
:1067D000194804F075FA194804F07AFA3B78CAE7C8
:1067E0001749024815F000FDACE700BF448D0020BA
:1067F0002C6D002035600020CC880020E06800204F
:10680000744404009C44040037600020D844040011
:1068100061630200F8680020E8440400286D00204D
:106820005C450400106000205C600020044504000A
:10683000C844040050600020386000204060002000
:10684000BC4404000000000070B52DED028B5C4BD1
:1068500082B0186819F00EFA07EE900AF8EE677A1F
:1068600017EE900A1AF098F851A3D3E900231AF012
:10687000EBF81AF0CBFBDFED537A08EE100AB4EE1A
:10688000E78AF1EE10FA6AD49FED4F7AB4EEC78A28
:10689000F1EE10FA59D438EE477ADFED4C7A4C4DD0
:1068A0004C494D48F2EE048AE7EE278AFCEEE87A7E
:1068B000CDED017A9DF8044015F038FC0A222968D4
:1068C000454815F053FD4549434815F02FFC18EE97
:1068D000100A1AF061F841EC100B02213E4815F045
:1068E00053FC3F493C4815F021FC0A2221463A4816
:1068F00015F048FD3B49384815F018FC18EE900A91
:106900001AF04AF82CA3D3E900231AF09DF81AF0E4
:106910005DFBC1B20A223048334E15F03BFD2868BA
:10692000324B334946F82040421CA3FB02C3DB082C
:1069300003EB830301EB8001A2EB430381ED008AAB
:106940002B6002B0BDEC028B70BD78EE677ADFED94
:10695000298A1F4D1F49204867EEA88AA6E71C4DCB
:106960001C491D4815F0E2FB0A2229681A4815F057
:10697000FDFC1A49184815F0D9FB18EE100A1AF058
:106980000BF841EC100B0221134815F0FDFB1449E4
:10699000114815F0CBFB0A2200210F4815F0F2FC3C
:1069A000002410490C4815F0C1FB2146B2E700BF96
:1069B000000000000046F43F6666666666660440B6
:1069C0005C60002000404E45000061459A99193EE8
:1069D000386900201C450400448D0020284504002F
:1069E0002C4504003445040010690020CDCCCCCCEB
:1069F000606D00208988083DF0B5214DA3B015F0E9
:106A000085FE2B68C31AB3F57A7F01D223B0F0BD9F
:106A100008AB07AA044606A91A482C6010F036FCF9
:106A20000698194D19F0B8FF02460B460898CDE9B3
:106A3000042319F0B1FF06460F460798CDE9026717
:106A400019F0AAFFDDE90423CDE900010F4909A8E7
:106A50001BF01CFC2C680E4B642009A900FB0430C1
:106A60001BF034FC0B4B0134A3FB0423DB0803EBCA
:106A70008303A4EB43032B60FFF7E6FE23B0F0BDD6
:106A80005C6D0020E0680020246D00204845040073
:106A90003C690020CDCCCCCC38B50B4810F0A0FB25
:106AA0000A4B0B4A022400204FF4E0654FF0FF31FF
:106AB0001C609862012442F210709D85C3E90811A0
:106AC0005470906038BD00BFE06800202C6D00203D
:106AD000F868002000B583B02C23009304490548D2
:106AE0002B232D2210F010F803B05DF804FB00BF3B
:106AF00000300240886D002008B5064C064D206825
:106B00004FF0FF3116F08CFA0128F8D1AB6E9847A0
:106B1000F5E700BFD06D0020144B040084B070B5C1
:106B200084B008AC84E80F00DDE90925DDE90B46F7
:106B30002A4B0D995A6018609D601198DC6059616C
:106B40000E9A12990F9D109C9A61BDF84C209A855F
:106B5000C3E90901C3E907541E6100F0FDF800F024
:106B60000DFC002302220DF10E014FF4E860ADF898
:106B70000E3000F0E1FDBDF80E3042F214429342B7
:106B800009D044F23442934205D0012004B0BDE85C
:106B9000704004B0704703220021012015F00EFE62
:106BA0000F4C00231A461946206015F049FE206854
:106BB0000A2116F035FA0B4B0193022300930A4980
:106BC0000A4800234FF4805216F044FDB0FA80F0DA
:106BD000400904B0BDE8704004B070479C6D0020CF
:106BE000D06D0020CC6D002064450400F96A0200DD
:106BF00030B52C4B26252A242F225D609C605A61DB
:106C00002B2040F201122D212E252C2485B0D86096
:106C100019614FF0FF3025219D61DC619A620225E8
:106C20000124C3E908011D6083F82C4000F094F8AA
:106C300000F0A4FB00232A460DF10E014FF4E8609A
:106C4000ADF80E3000F078FDBDF80E3042F214427F
:106C5000934206D044F23442934202D0204605B01B
:106C600030BD03220021012015F0A8FD0E4C0023A9
:106C70001A461946206015F0E3FD20680A2116F037
:106C8000CFF90A4B019302230093094909480023D5
:106C90004FF4805216F0DEFCB0FA80F0400905B0E7
:106CA00030BD00BF9C6D0020D06D0020CC6D002059
:106CB00064450400F96A0200074B4FF4E06110B428
:106CC000002002244FF0FF3299851C60C3E908229E
:106CD0005DF8044B986270479C6D0020024A034B9C
:106CE00010681B6858407047600000106400001076
:106CF0000A4A0B4B1168C1711168090A81715188E8
:106D00004171D27802711A68C2701A68120A8270D0
:106D10005A884270DB780370704700BF6000001033
:106D20006400001000207047704700BF704700BF2C
:106D300001480FF01BBF00BF886D002038B5054C1F
:106D4000A4F1500554F8083D1B6820469847AC4212
:106D5000F8D138BD306E0020704700BF30B5224CEE
:106D6000257883B0ADB163787BB3A3787BB3E37848
:106D70007BB323797BB363797BB3A3797BB3E3796B
:106D80007BB3237A23B1637A092513B103B030BDF5
:106D9000082543780161012262550570134853B1FB
:106DA00000230A4600EBC500009342F2107118F070
:106DB00047FD03B030BD009200EBC5000A4642F229
:106DC000107118F03DFD03B030BD0125E1E702254B
:106DD000DFE70325DDE70425DBE70525D9E7062501
:106DE000D7E70725D5E700BFD46D0020E06D002070
:106DF00010B5064C037804EBC304204618F06CFD74
:106E00002046BDE8104018F033BD00BFE06D002003
:106E1000024B007803EBC00018F05EBDE06D00206F
:106E200010B4054C0378054A04EBC3005DF8044B2D
:106E300042F8231018F07CBDE06D0020306E002079
:106E400015F064BC10B5044615F060FC001B10BDC5
:106E500038B5084C04F150052046083418F0E8FC19
:106E6000AC42F9D1BDE83840034A044900201AF089
:106E700099BA00BFE06D0020006000203D6D020067
:106E80002DE9F04FDFF82483C54C98F8003083B02B
:106E90000646002B00F0BA80C24D002E61D040F2B1
:106EA000E93603E015F03EFC013E04D0A06918F07D
:106EB000B1FF0128F6D0A068002118F08DFF95E8F9
:106EC0000600B9480FF096FE1D21B7480FF0FAFEF4
:106ED0000921B5480FF0F6FE2021B3480FF0F2FE6D
:106EE0000021B1480FF0EEFE0021AF480FF0EAFE9E
:106EF0000746AD480FF0E0FEA068012118F06CFFD6
:106F000040F2E93603E015F00DFC013E04D0A06923
:106F100018F080FF0128F6D0A068002118F05CFF6F
:106F200095E80600A0480FF065FE0D219E480FF081
:106F3000C9FE09219C480FF0C5FE20219A480FF098
:106F4000C1FE47F00801C9B297480FF0BBFE964852
:106F50000FF0B2FEA068012103B0BDE8F04F18F0B9
:106F60003BBF40F2E93603E015F0DCFB013E04D004
:106F7000A06918F04FFF0128F6D0A068002118F092
:106F80002BFF95E8060088480FF034FE1D21864847
:106F90000FF098FE092184480FF094FE20218248CA
:106FA0000FF090FE002180480FF08CFE00217E48FB
:106FB0000FF088FE07467C480FF07EFEA068012196
:106FC00018F00AFF40F2E93603E015F0ABFB013E92
:106FD00004D0A06918F01EFF0128F6D0A068002197
:106FE00018F0FAFE95E806006F480FF003FE0D2139
:106FF0006D480FF067FE09216B480FF063FE2021FA
:1070000069480FF05FFE07F0F7019DE740F2E935B0
:1070100003E015F087FB013D04D0A06918F0FAFEEB
:107020000128F6D05F4DA068002118F0D5FE95E844
:1070300006005D480FF0DEFD1D215B480FF042FEAB
:10704000052159480FF03EFE802157480FF03AFEC7
:10705000002155480FF036FE002153480FF032FE54
:107060000146514801910FF027FEA068012118F058
:10707000B3FE40F2E93703E015F054FB013F04D0C2
:10708000A06918F0C7FE0128F6D0A068002118F00A
:10709000A3FE95E8060044480FF0ACFD1D214248D0
:1070A0000FF010FE052140480FF00CFE83213E48F2
:1070B0000FF008FE00213C480FF004FE00213A4882
:1070C0000FF000FE834638480FF0F6FDA06801215E
:1070D00018F082FE40F2E93703E015F023FB013F90
:1070E00004D0A06918F096FE0128F6D0A06800210F
:1070F00018F072FE95E806002B480FF07BFD1D216D
:1071000029480FF0DFFD052127480FF0DBFD842122
:1071100025480FF0D7FD002123480FF0D3FD0021B3
:1071200021480FF0CFFD82461F480FF0C5FDA06833
:10713000012118F051FE40F2E93703E015F0F2FAB0
:10714000013F04D0A06918F065FE0128F6D0A068C0
:10715000002118F041FE95E8060013480FF04AFDA3
:107160001D2111480FF0AEFD05210F480FF0AAFDBB
:1071700085210D480FF0A6FD00210B480FF0A2FD60
:10718000002109480FF09EFD814607480FF094FD4D
:10719000A068012118F020FE40F2E9370CE000BFA2
:1071A0009C6D00205C6E0020886D0020586E0020D1
:1071B00015F0B8FA013F04D0A06918F02BFE0128A1
:1071C000F6D0A068002118F007FE95E806006A488E
:1071D0000FF010FD0D2168480FF074FD0521664881
:1071E0000FF070FD802164480FF06CFD019B624838
:1071F00043F00801C9B20FF065FD5F480FF05CFD78
:10720000A068012118F0E8FD40F2E93703E015F02D
:1072100089FA013F04D0A06918F0FCFD0128F6D0DE
:10722000A068002118F0D8FD95E8060052480FF03C
:10723000E1FC0D2150480FF045FD05214E480FF0AF
:1072400041FD83214C480FF03DFD0BF0F7014A480A
:107250000FF038FD48480FF02FFDA068012118F00D
:10726000BBFD40F2E93703E015F05CFA013F04D0C2
:10727000A06918F0CFFD0128F6D0A068002118F011
:10728000ABFD95E806003C480FF0B4FC0D213A48F0
:107290000FF018FD052138480FF014FD8421364801
:1072A0000FF010FD0AF0F70133480FF00BFD3248E4
:1072B0000FF002FDA068012118F08EFD40F2E937C1
:1072C00003E015F02FFA013F04D0A06918F0A2FDE9
:1072D0000128F6D0A068002118F07EFD95E8060090
:1072E00025480FF087FC0D2123480FF0EBFC05210A
:1072F00021480FF0E7FC85211F480FF0E3FC09F05F
:10730000F7011D480FF0DEFC1B480FF0D5FCA0680C
:10731000012118F061FD40F2E93703E015F002FAAF
:10732000013F04D0A06918F075FD0128F6D0A068CF
:10733000002118F051FD95E806000F480FF05AFCA7
:107340000D210D480FF0BEFC09210B480FF0BAFCCF
:10735000202109480FF0B6FC062107480FF0B2FCC7
:1073600005480FF0A9FCA068012118F035FD0123A4
:1073700088F8003091E500BF886D002070B5334C6F
:10738000334EFFF7D5FC0025A0683570012118F0B9
:107390009FFCA068012118F01FFDA069294618F084
:1073A00097FC6069294618F093FC6068012118F089
:1073B0008FFC6068012118F00FFD94F82C30206AD2
:1073C000F3B1411C39D1606A012118F081FC606A77
:1073D000002118F001FD6068012118F079FC0021FE
:1073E000606818F0F9FC0A2015F09CF9606801212A
:1073F00018F0F2FC142015F095F90023337070BDDD
:10740000421CE8D0636A0133E5D0012118F060FC2A
:10741000606A012118F05CFC94F82C508DB9606A08
:10742000431CD8D0236A0133D5D0012118F0D4FCF5
:10743000206A294618F0D0FCCDE7294618F048FC10
:10744000C1E7606A012118F0C7FCC4E79C6D002009
:10745000586E0020024B01460422586915F010B8FE
:107460009C6D002010B50B4C0121606818F030FCB9
:107470000021606818F0B0FC0A2015F053F960682C
:10748000012118F0A9FC142015F04CF9024B002240
:107490001A7010BD9C6D0020586E002038B5074D45
:1074A00040F2E93403E015F03DF9013C04D0A8694D
:1074B00018F0B0FC0128F6D038BD00BF9C6D00204C
:1074C00038B5174B174D00241C70FFF72DFC2146D3
:1074D000A86818F081FC144B144893E806000FF0DC
:1074E00089FBC02111480FF0EDFB21460F480FF03A
:1074F000E9FB0E480FF0E0FBA868012118F06CFCD6
:1075000040F2E93403E015F00DF9013C04D0A8691C
:1075100018F080FC0128F6D0BDE83840FFF706BC23
:10752000586E00209C6D00205C6E0020886D00204D
:107530002DE9F0411D4E154607460C460DF0D2FFD1
:10754000B068002118F048FC194B1A4893E806006F
:107550000FF050FB174839460FF0B4FB65B1013D01
:10756000DFF8508014FA85F5013C14F8011F4046FD
:107570000FF0A8FBAC42F8D10E480FF09DFBB068AD
:10758000012118F029FC842F01D1BDE8F08140F2DF
:10759000E93403E015F0C6F8013CF6D0B06918F004
:1075A00039FC0128F6D0BDE8F08100BF9C6D0020B9
:1075B0005C6E0020886D0020F8B51D4E154607460C
:1075C0000C460DF08FFFB068002118F005FC194B38
:1075D000194893E806000FF00DFB394616480FF0E6
:1075E00071FB154800210FF06DFB65B1013D124F95
:1075F00014FA85F5013C002138460FF063FB04F8CE
:10760000010FAC42F7D10C480FF056FBB0680121D6
:1076100018F0E2FB40F2E93403E015F083F8013C96
:1076200004D0B06918F0F6FB0128F6D0F8BD00BF11
:107630009C6D00205C6E0020886D0020F8B51E4E09
:10764000074615460C460DF04DFFB068002118F0B6
:10765000C3FB1A4B1A4893E806000FF0CBFA0D2132
:1076600017480FF02FFB390A15480FF02BFB144871
:10767000F9B20FF027FB5DB1013D114F14FA85F50A
:10768000013C14F8011F38460FF01CFBAC42F8D146
:107690000B480FF011FBB068012118F09DFB40F280
:1076A000E93403E015F03EF8013C04D0B06918F06D
:1076B000B1FB0128F6D0F8BD9C6D00205C6E002067
:1076C000886D002070B5194D04460E460DF00AFF76
:1076D000A868002118F080FB154B164893E80600B7
:1076E0000FF088FA0D2113480FF0ECFA210A114827
:1076F0000FF0E8FAE1B20F480FF0E4FA31460D4816
:107700000FF0E0FA0B480FF0D7FAA868012118F043
:1077100063FB40F2E93403E015F004F8013C04D0C7
:10772000A86918F077FB0128F6D070BD9C6D002089
:107730005C6E0020886D0020F8B5214E0746154686
:107740000C460DF0CFFEB068002118F045FB1D4B34
:107750001D4893E806000FF04DFA1D211A480FF05E
:10776000B1FA390A18480FF0ADFAF9B216480FF01D
:10777000A9FA154800210FF0A5FA65B1013D124F95
:1077800014FA85F5013C002138460FF09BFA04F805
:10779000010FAC42F7D10C480FF08EFAB06801210E
:1077A00018F01AFB40F2E93403E014F0BBFF013C8F
:1077B00004D0B06918F02EFB0128F6D0F8BD00BF48
:1077C0009C6D00205C6E0020886D002070B51C4E02
:1077D00004460DF087FEB068002118F0FDFA194B41
:1077E000194893E806000FF005FA1D2116480FF01E
:1077F00069FA210A14480FF065FAE1B212480FF055
:1078000061FA002110480FF05DFA00210E480FF0D8
:1078100059FA04460C480FF04FFAB068012118F0ED
:10782000DBFA40F2E93503E014F07CFF013D04D0BF
:10783000B06918F0EFFA0128F6D0204670BD00BFFD
:107840009C6D00205C6E0020886D0020F8B51D4EF8
:10785000174605460C460DF045FEB068002118F0AD
:10786000BBFA194B194893E806000FF0C3F90E2133
:1078700016480FF027FA154829460FF023FA67B18A
:10788000BDB2013D114F14FA85F5013C14F8011FFA
:1078900038460FF017FAAC42F8D10C480FF00CFA4A
:1078A000B068012118F098FA40F2E93403E014F0CE
:1078B00039FF013C04D0B06918F0ACFA0128F6D0C9
:1078C000F8BD00BF9C6D00205C6E0020886D00201C
:1078D000F8B51F4E174605460C460DF003FEB0687E
:1078E000002118F079FA1B4B1B4893E806000FF0B3
:1078F00081F91E2118480FF0E5F9294616480FF0C6
:10790000E1F9154800210FF0DDF96FB1BDB2013D7D
:10791000114F14FA85F5013C002138460FF0D2F9D9
:1079200004F8010FAC42F7D10B480FF0C5F9B0686D
:10793000012118F051FA40F2E93403E014F0F2FEAC
:10794000013C04D0B06918F065FA0128F6D0F8BD02
:107950009C6D00205C6E0020886D002002210DF0DF
:10796000AFBF00BF034B1B68022B0CBF02200120DE
:10797000704700BF9C6D002010B50A4C94F82A3067
:107980001BB994F82C303BB910BD0120FFF778FAF1
:1079900094F82C30002BF7D0606A0121BDE810402C
:1079A00018F01ABA9C6D002010B50A4C94F82A30D1
:1079B0001BB994F82C303BB910BD0020FFF760FADA
:1079C00094F82C30002BF7D0606A0021BDE81040FD
:1079D00018F002BA9C6D002038B50C4C94F82C506D
:1079E000606A75B9431C0BD0236A013308D00121AA
:1079F00018F0F2F9206A2946BDE8384018F0ECB9D1
:107A000038BDBDE83840012118F0E6B99C6D002072
:107A100010B50C4C94F82C10606A69B9431C0AD05C
:107A2000236A013307D018F0D7F9206A0121BDE895
:107A3000104018F0D1B910BDBDE81040012118F078
:107A4000CBB900BF9C6D0020034B044A1A604FF471
:107A500080729A80704700BF5C6E002080841E0098
:107A6000F8B5234B234A1D6B1563D3E9090102F1D5
:107A7000240484E803001C881480596B93F8214087
:107A80009B8D93851C4B82F82140516300241B4D34
:107A90001B4A1C701B491C4B2C6014701B4E1C4D48
:107AA0001C4A0C701C701C4930782C700123137018
:107AB0001A4F1B4A1B4E1C4D0B70022113702B805A
:107AC0003C60346003F082FC184B194819491A4A8B
:107AD0001B6804700C7014701BB15C629B6A002BF5
:107AE000FBD11649164A00230B701370F8BD00BF76
:107AF000A46E00206C6E0020DE720020306F00202B
:107B0000D8700020707300206C730020DC6E0020A1
:107B1000E172002060600020626000204870002058
:107B200061600020F470002026710020B8720020EF
:107B30002B72002024710020DD7200206E73002063
:107B4000346F002008B50C48FFF762F90B4B1B7827
:107B50003BB10B4A0B491368012023F00403136067
:107B60000870094B1B78022B00D008BD074A137818
:107B700043F01003137008BDDC7000202B7200204E
:107B8000E06E0020D8700020BC720020686E0020DB
:107B90002DE9F04F8BB0914202934CD2DFF810B335
:107BA000DFF810A30F4691460546EB5D7C1C023BB7
:107BB000E4B2082B3FD8DFE813F058017F013D0104
:107BC0000801DF00A3008000410009003B1DF91CF3
:107BD000DBB2BA1CC9B2EB5C695C285D8DF81C0095
:107BE000D2B21B04AA5C9BF8000043EA01231343B2
:107BF000642202FB03F307A9089303F05FFEA34B83
:107C0000A3491B780A78C3F18003DBB2053793429E
:107C1000FFB240F23581531C9E4CDBB20A260AF8B3
:107C20000260B94502F102024FF001060AF80300B2
:107C30000A702670B9D80BB0BDE8F08F2B5D9BF8A9
:107C4000000000228DF81C2013F0200218BF012232
:107C50008DF81D20DA0648BF012203F00F0307A9A3
:107C600048BF8DF81C208DF81E3003F0FBFD023755
:107C70000130FFB200F0048187499DF81E20834B3C
:107C80008A5C1B788249BDF81C0007EE902A834A63
:107C9000F8EE677AC3F18003C2ED0C7A90850A781A
:107CA000DBB2934240F2EC807A4B012410191C7035
:107CB00009230AF802300870E2E02A5D734B774925
:107CC0001B78734802F00F02012A38BF01224FF4DB
:107CD0007A7404FB02F21619C1E90426C3F1800389
:107CE0000278DBB202379342FFB240F2C980694B9F
:107CF000012411191C7008230AF802300170BFE03A
:107D00003B1DF91CDBB2C9B2BA1CEB5C6E5C295D91
:107D10008DF81810D2B21B04AA5C9BF80000791DE4
:107D200043EA0623C9B21343642202FB03F36C5CEB
:107D3000079307AA002305A9059208938DF824400C
:107D400003F064FD514B52491B780A78C3F180035C
:107D5000DBB2013B06379A42FFB280F29180541C9D
:107D600007234C4E0AF80230E4B2931C01220AF8B1
:107D700004000B70327083E0494B1B68002B00F04D
:107D800019811B68002B00F0158198473F4B404933
:107D90001B780A78C3F18003DBB2023B9A4280F27F
:107DA0000B81531C961CDBB2F6B24FF0060C274633
:107DB000384C0AF802C00AF80300D31C02980AF8EB
:107DC000060001220B7022705AE03B1DFA1CDBB248
:107DD000D2B2B91CEB5CA85C2A5DC9B21B04695C19
:107DE00043EA00230B43642101FB03F3C2F30216B1
:107DF0009BF80000089302F00F0207A98DF81D60A0
:107E00008DF81C2003F0D6FC00F007030537072B84
:107E1000FFB200F0C3801D4B1D491B780A78C3F1E7
:107E20008003DBB2013B9A422ADA531C194CDBB2C5
:107E30000526F4E61B49154B2A5D0A7014481B7889
:107E4000194E012101FA02F2C3F180033280027857
:107E5000DBB202379342FFB212D90E4B541819709D
:107E600004230AF8023004700AE0104B00225A7012
:107E7000BA1C295D1972D2B20337AA5C5A72FFB2DA
:107E8000B9453FF692AE0BB0BDE8F08F6C730020A1
:107E9000E1720020DD7200206C4504006C6E002051
:107EA000287100207073002026710020006F0020D0
:107EB000DC6E002038720020404B414E19788DF85E
:107EC000221005A97378327896F82CC001910DF133
:107ED00013010091601E96F820108DF82330A9EB55
:107EE000070728448DF820700DF1120300278DF844
:107EF00024208DF8251007900DF111029BF8000049
:107F00008DF821C007A98DF811708DF812708DF8C9
:107F100013708DF8147003F007FC00F00703072BB3
:107F200031D09DF81420274B0392A3FB023C042A76
:107F30004FEA9C0C22D9244B1F78244B1A78244BEF
:107F4000C7F18007FFB293F800E0013F00214FF036
:107F500003080131531CBA42CEB2DBB207DA0AF889
:107F6000028002320AF80300D2B24FF0010EB4458B
:107F7000EFD8164B1A70164B83F800E0039B5F1E78
:107F80003C44E7B27CE79DF811309DF812207370F5
:107F90009DF81330327086F82030C2E7084B9DF808
:107FA0001C20089983F828209DF81D20596283F829
:107FB000212030E7FF20E9E6274661E76F730020C4
:107FC0006C6E0020CDCCCCCC6C730020E172002014
:107FD000DD720020F0B53C4D85B0FEF731FF2B7807
:107FE000022B044602D0394B1B6B9847384B1A784A
:107FF000002A3CD1374B384D384819786A70042232
:108000004270002930D01A78354D364E42F01002B9
:108010001A701B7813F0080304D0304B1B78B3FAA6
:1080200083F35B09304A31491278314F09788DF872
:108030000810A2F10102B2FA82F252098DF8092069
:108040002C4A39703078137002A9039403F094F924
:10805000294A2B7814602BB928491F480A784370A5
:10806000531C0B7005B0F0BD01221A70CBE7244BF6
:1080700024481968244FFEF7D3FE2248FEF7B8FEC5
:1080800039682248FEF7CCFE2048FEF7B1FE2B7877
:10809000134D022B01D02B7893B1124E122301A95C
:1080A00030788DF8043003F03BF93B680146194401
:1080B0001748FEF7B5FE1648FEF79AFE054BA8E7EF
:1080C000084E044BA5E700BFBC720020144B04000F
:1080D00061600020686E0020EC6E0020006F0020C0
:1080E0002B720020DC6E0020646E00206E73002076
:1080F000346F0020D8720020E4720020DE7200206D
:1081000088700020907000208C700020A8700020E3
:10811000DC70002070B51A481A4C1B4D1B4E82B003
:10812000FEF776FE1A4B1B4A1B781B481278237009
:1081300095F821301949E37095F82D3000782374B3
:10814000022A4FF00003607463820B7001D1736BDD
:108150009847134B134A18780A4903F071FAA37C25
:1081600033B9B36BE868019302B0BDE870401847BB
:10817000B36B0193002002B0BDE87040184700BF08
:1081800090700020FC7000206C6E0020144B0400E6
:108190006E730020BC720020FA7000206D73002006
:1081A000DC6E00207470002038B52448244D254C26
:1081B000FEF72EFE2449254B254A087812781978B7
:1081C00095F82D302270237401226B6A61740A289D
:1081D000E27463602BD00B2823D009281BD01D4BE1
:1081E0001D4A1B781749A3F10203B3FA83F35B0915
:1081F000A37403F025FA40B1A37C3BB1174B0020D8
:108200009B6B9847164BE27C1A7038BD134BE8689D
:108210009B6B9847F6E7A3F5DB13A3F5BA536360AE
:10822000DDE7A3F5B403A3F5DC636360D7E7A3F54B
:10823000C903A3F555536360D1E700BFA8700020C0
:108240006C6E002010710020DC6E0020FA7000209F
:108250006E730020BC72002074700020144B040068
:108260006D73002010B51B4C2378022B2ED01A4BB7
:108270001B6B9847194B1B78B3B9194B1B7813B17B
:10828000184B03225A70184A184B106803225A7070
:10829000FEF7D8FD164B1B68984204D3154A137895
:1082A00043F01003137010BD0D4B1B7813B10D4B31
:1082B00004225A7023780D4A0421022B5170F2D007
:1082C0000C4A137843F010031370ECE7FFF76CFFD0
:1082D000D0E700BFBC720020144B04006D73002077
:1082E0002B720020EC6E0020E4720020006F002052
:1082F0008C700020686E00200A4B1B78022B10B592
:108300000DD0094B1B6B98470849094C0B7809485D
:10831000022243F010030B706270427010BDFFF731
:1083200043FFF1E7BC720020144B0400686E00208C
:10833000EC6E0020006F002008B5194B1B78022B53
:108340002BD0184B1B6B9847174B1B78B3B9174BA7
:108350001B7813B1164B05225A70164A164B10683B
:1083600005225A70FEF76EFD144B1B68984204D329
:10837000134A137843F01003137008BD0B4B1B789E
:1083800013B10B4B06225A700D4A0B491378062085
:1083900043F010031370487008BDFFF705FFD3E7E3
:1083A000BC720020144B04006D7300202B7200205F
:1083B000EC6E0020E4720020006F00208C70002022
:1083C000686E00202DE9F04FDFF86CC2884E8BB04C
:1083D0000024BDF850E034800F4690461D460694B8
:1083E0008CF800401BB35FFA8EF2824C0378237046
:1083F0000378DFF848925B0989F80020072B05D83D
:10840000DFE803F018040C040904045902221046A2
:108410000BB0BDE8F08F01238CF80030764B1A7852
:10842000012A58D0072210460BB0BDE8F08F1A463B
:108430009E46DAE7714B72481968724D0123082293
:1084400033800EF047FB33886F4A08339BB21168C4
:108450003380E01808220EF03DFB33886B4A083366
:108460009269338090473188694B60541A684F1C79
:1084700083B22B80BFB28D1CADB21B0AE355E9B2AB
:108480005C48358006AB02F053F93388069AE25413
:108490005D1C981CADB2D91C170A80B289B2675511
:1084A000150C120E255404336254338000221046FA
:1084B0000BB0BDE8F08F002DF8D0002AA7D05FFAEE
:1084C0008EF24F4829460EF0C9FA99F80030013370
:1084D000338000229BE74F4B39784F48B3F800E0D8
:1084E000DFF85CA10090C9098DF81C2093F82C20BE
:1084F000D0F800C08DF826209EFA9EFE5A1C8DF8FA
:108500001D109AF80000ADF824E007A9CDF820C0AE
:1085100003F00AF8414A3B78117860F386133B7008
:1085200029B1DBB243F0200300213B7011703C4BBA
:108530003C491B6808786370190A1A0CDFF804A11B
:10854000E2701B0E2371A170DFF8FCB0364A397857
:10855000BAF8003012786171E380344958440EF063
:108560007DFA3049304A0B7812781344DBB20B7035
:10857000002D00F0D08099F80010002900F0CB8089
:108580002B4A05921278FAB10F2B00F2F5803A7857
:108590000493C2F30300184460F303023A7098B2E4
:1085A0006271002B00F0BC80421E92B20132214861
:1085B000594618F089FF049B03F10802D2B20492D5
:1085C000059900220A7004E0002B00F0AC8008221C
:1085D00004920021DFF854C00A461BF80270F81E0E
:1085E00007283FD8DFE800F08A3E32948A8D3E3279
:1085F000DA720020406F0020646E0020386F002087
:10860000416F0020F870002040700020144B0400DF
:108610003C6F00206C6E0020306F00202471002021
:108620005C700020E17200206C730020EC7200206E
:10863000DD720020486F00202B720020DC720020C9
:10864000DC6E002048700020387200200132481C87
:10865000D2B2C0B21BF802E00CF8017002310CF883
:1086600000E0C9B20132D2B29342B6D8464B19707B
:1086700000295ED0059A99F8001001231370DDB12E
:10868000D1B1049B5F1C04F80380FFB2B8F1000F66
:108690005ED1E319CDF800800293DAF8003001933F
:1086A0003A4A3B4B82F800801B683A4A284601F060
:1086B00079FE99F800100497049B37480B4419463B
:1086C000DAF800300193324B318006AA00251B688E
:1086D000029200952F4A01F02BFE3288069BA3548C
:1086E0001444111D180C2A461F0AA0701B0E1046B8
:1086F00031806770E3700BB0BDE8F08F0132D2B209
:10870000B0E7481C4FF008070CF80170C1B2A9E7A8
:108710000232D2B2A6E77BB9204B99F8001005933C
:10872000059A00231370184A00231370082304933A
:10873000A5E799F80010A2E7184A05921278C2B18D
:108740000822174D89F800304FF00008049237E7EF
:10875000DAF80030E21902920022CDE900230C4B36
:10876000104A1B68284601F01DFE99F80010049776
:10877000A2E70822049223E7082289F800304FF08C
:1087800000085D4604921BE76C730020E172002034
:108790005C70002060700020406F0020DD720020BF
:1087A000387200204C700020F0B5294C294B226B08
:1087B000294D616B1B7887B0039262788DF80800B1
:1087C0000491207829888DF8092000228DF80A006C
:1087D000ADF814108DF807203BB1204A204B1278D9
:1087E0001B788DF808208DF809301E4F1E4A1F4E49
:1087F00010783B460DF1070202A902F04FFF1C4A18
:1088000063783F6893709DF807401A48976001238A
:10881000FA2173705370D4707760FEF701FB15482E
:10882000FEF7E6FA144B1B78012B03D0134A13789A
:1088300001331370124B2978DB6A12489847124AA9
:108840001368002043F00103136007B0F0BD00BFC0
:108850006C6E00207A760020DA7200207B76002091
:10886000B8600020E46E0020DC6E0020006F002065
:10887000EC6E0020C0720020646E00203072002078
:10888000144B0400406F0020E06E00202DE9F047FB
:10889000784B1B7888B00022FF2B039200F0E68013
:1088A000754E002B00F08D80DFF81892734A99F80E
:1088B0000030734F73481178DFF80C823A78006803
:1088C0008DF81710A3F10103B3FA83F35B098DF858
:1088D00014308DF81620FEF7B5FA6B4DD8F800204D
:1088E0006A4B6B4C1B788DF81530CDE9060205A953
:1088F000287803F03BF8674BD8F800001B883168F4
:1089000099F800203F788DF81E70013B00FB03139F
:10891000A2F10102604960780968604FDFF8AC811C
:108920003360B2FA82F2520905938DF81D208DF85A
:108930001C00069104E098F9013063708DF81C303A
:108940000096287803AB3A4605A903F039F80028C9
:10895000F1D02E7894F9213094F9012094F82D105B
:10896000DFF86C814E4F304603F09AF8CDF8008066
:1089700041B26368227A304602F01CFE009794F9F7
:1089800028106368227A287802F014FE99F8001003
:10899000012931D0D4E906232878D8F80CC0FE6824
:1089A000404D414C6244334405282A60236019D06D
:1089B000039941B9394B1878FFF7F6FE08B0BDE8C6
:1089C000F087336070E7394A3948136843F0100381
:1089D0001360FEF725FA3648FEF70AFA002008B0C1
:1089E000BDE8F0870229E3D1324B1A78002ADFD0A4
:1089F000002203921A70DDE72F4B94F901202F4ECD
:108A00002F481B7894F82C108DF811200922367805
:108A100090F800A08DF812108DF8102013B10A23E1
:108A20008DF81030287804A902F07AFC06EB0A03CE
:108A300080B2984201D3FF2B03D9082008B0BDE8CB
:108A4000F087D4E90423D8F80CC0FE682978154CC7
:108A5000154862443344052922600360A8D199F87F
:108A600000100129BED1134B1970A1E7092008B0ED
:108A7000BDE8F087707300202C720020346F002056
:108A8000E86E0020E8720020DC6E0020D872002022
:108A90006C6E002026710020E47200206E730020AE
:108AA00010710020887000208C700020E06E002083
:108AB000C070002064600020FA700020DC7200208A
:108AC000E1720020646E0020E46E0020A46E00209D
:108AD000FC70002070B51B4886B0FEF799F91A4A61
:108AE0001A491368097823F0100313600B0702D5A5
:108AF000174B1C781CB1FFF7C9FE06B070BDFEF71E
:108B0000AFFF144B144A1B781078144E013305A99B
:108B1000ADF8143002F0FEFE114B70701B7800941B
:108B2000254663F3C7152246234604A903A88DF8FA
:108B30000C408DF81050FFF745FCFFF7A7FE06B07C
:108B400070BD00BFC0700020E06E0020686E002085
:108B5000006F002030720020DC6E00206C6E002060
:108B60006F730020F0B5964D9648974E83B0FEF790
:108B70004FF92B783468DA064BD5670644BF24F0EA
:108B80004104346013F0090F00F089808F4A517856
:108B9000022900F08E808E494878022800F08980F2
:108BA0008C4A1278002A7AD11A0700F1E8808A49A3
:108BB0008A4A91F820001178884240F2F58013F03B
:108BC000020364D0864909780020107019B98549DC
:108BD0000A6801320A6024F001043460002B79D065
:108BE0007A4A1379002B00F0C7807F4B19787C4BB1
:108BF000DFF814C21878774F00238CF800303B70F0
:108C000018B9784803680133036024F00104346024
:108C10005171A70744BF24F002043460002C40F0D7
:108C200081802B78714ADE07147009D5704B674834
:108C30001B681B6898472B7864F300032B70DBB22A
:108C40001C0712D42B786FF304132B702B78980722
:108C500009D5684A1278022A6CD0590723D52B7897
:108C600023F006032B7003B0F0BD614B584C1B681A
:108C700020469B6898472378002B4ED15E4B1B788B
:108C8000012B4AD02B7843F008032B70DAE72A78BF
:108C900063F304122A70FFF71DFF2B78346803F08A
:108CA0000203BBB19CE7524B54481B685B68984772
:108CB000D5E74D49524F09785171002024F0010445
:108CC0003870107190609807346003D54D4B1B7855
:108CD0008B428CD34C4B1A78002A9AD014F0100295
:108CE00097D1414F47491A703B780A789A4227D961
:108CF000464A12789A4223D30133DBB23B70DB073A
:108D000000F1A480FFF7C2FD002840F087802B7897
:108D1000346860F304132B707BE72B786FF3C30385
:108D20002B708FE72748FA21FEF77AF82548FEF7DF
:108D30005FF88BE7FFF738FA2B7859078FD4B2E743
:108D4000334B0121187802F041FB254B1F4A19785B
:108D50003B78346853710023294813711D4A03700E
:108D600024F001041370346000297FF452AF1D4ACF
:108D70001368013313604CE71B4B1978A6E70A7898
:108D8000002A7FF414AF234F3F788F7200286FD1F1
:108D90001449124A086024F0010403F0020334600D
:108DA0001070002B96D01BE713F002037FF40AAF7C
:108DB0001948134F01683B700131016002E700BFA1
:108DC000686E0020C0720020E06E0020EC6E002073
:108DD000006F00202B7200206C6E0020DE720020DD
:108DE000DF7200204870002062600020787600204A
:108DF00034720020BC720020646E0020707000206D
:108E0000E172002060600020D870002063600020C4
:108E1000DC6E002030720020306F0020254A264B87
:108E2000387852782549346858719A7009200022A0
:108E300058701A712248234B0978027024F00104FB
:108E40001A70346000297FF4E4AE90E7194C1E4A92
:108E500094F82C3010788DF8063062788DF8052063
:108E6000202301A98DF8043002F05AFA607049E716
:108E70001648174900784FF0030CB84281F800C03B
:108E800008D824F0010403F002033460002B3FF4FF
:108E900021AFA5E62B7862F3041302222B700A702F
:108EA000FFF718FE2B78346803F00203002B3FF421
:108EB00011AF95E66C6E0020EC6E0020DF72002092
:108EC000E17200202B720020DC6E0020E072002096
:108ED000646E00202DE9F04F2DED028BB34EB44CA3
:108EE000B44DB54F3678667493B05FFA83FB0023B8
:108EF0000646E28163800F936371A360A381A3742C
:108F0000636123703B7184F810B02B6B0D4698475A
:108F1000AA48FDF77DFF96F800904FEA5913013BF0
:108F2000062B00F2B480DFE813F0CA00B20007009D
:108F3000B2000700B200FD00A14BA24A1B7892F8D4
:108F40002D2021798DF83A2009228DF839108DF8DD
:108F5000382013B10A238DF838309B4B0EA91878AE
:108F600002F0DEF9A5F10D031BB200B223EAE373B0
:108F7000834200F343810B2D40F24081934BD6F89E
:108F800001A01B68534500F0CE81914BD3F80080BF
:108F9000B8F1000F00F07082434603E09B6A002B9B
:108FA00000F06A821A685245F8D19846043308EEF8
:108FB000103A08F114030C93D8F8243005930123D8
:108FC0000B93711996F807E011F8023C11F803CCE5
:108FD000B27911F8040C11F8011C1B0442EA0E22AC
:108FE00043EA0C2E059B96F805C0CDF818C0D21A9E
:108FF00040EA0E0013B240EA0161002B90B20CF07F
:109000000F02079108900992C0F21481059B034456
:10901000184605932B1F19460A930FAA01230190A6
:1090200089B20292009318EE102A5346304601F09E
:109030007FF90F9B07998B4200F01681624B0EA9B6
:10904000187811238DF8383002F06AF9089B8342B2
:10905000C0F005825F4D604E2B68059932786161E2
:1090600043F040030A212B606170002A00F0D18098
:109070005A48FDF7CDFE3378002B00F0CA802B68EC
:10908000574A23F0040301212B601170C1E0514DB8
:10909000514E2B68327843F0400301272B606770F4
:1090A000002A5FD14F4F50483B7823F0120343F022
:1090B00012033B70FDF7ACFEFFF754FD44E0DFF810
:1090C000388198F80070012F59D0484C484F691EDC
:1090D000701C3A68631C89B201F04CFB291F3A6886
:1090E00084F80090204689B20FAB01F021FB611992
:1090F0000F9A11F8023C11F8036C11F8040C11F8E6
:10910000011C1B0443EA0623034343EA01639A421A
:1091100000F01581374A334F07210323517088F837
:10912000003011E0DFF8C4802E4F2A46711C404603
:109130000DF094FC3B78C4F80880013D43F0020335
:1091400003223B70257322803B78274843F01003AD
:109150003B70FDF75DFEFFF705FD13B0BDEC028B24
:10916000BDE8F08F1D48FDF753FE3378002B99D0F2
:109170002B681B4A23F004032B60177092E7154DF0
:10918000154E2B683278677043F040032B60002A3D
:109190003FD01248FDF73CFE3378002B39D02B68C6
:1091A0000F4A23F004032B60177032E06D73002028
:1091B00070700020144B0400EC6E0020A87000209A
:1091C000FA7000206C6E0020DC6E00205C700020C5
:1091D000B8720020E06E00202B720020DC700020AE
:1091E000D8700020686E0020C07200202C71002012
:1091F0003C6F0020006F0020646E0020B34DB44E21
:109200002B68327843F0400301272B606770002AF7
:10921000BFD1B04AB048137823F0120343F01203D1
:109220001370FDF7F5FDFFF79DFC13B0BDEC028B4D
:10923000BDE8F08F059A02F58032D118281F0FAAD9
:1092400001230D910A900191029281B218EE102A29
:1092500000933046534601F06BF80F9B079A9342F8
:109260007FF4ECAE0D9B05939C4B0EA9187811234F
:109270008DF8383002F054F8089B8342BFF4EAAE10
:10928000059A6261069ADFF898C295490B98A0701A
:109290000023C2F30012CCF800306370A360237384
:1092A0007B700B706271002840F0A4808D4A8E485C
:1092B000116809F0E009B9F1A00F00F0EA8023700D
:1092C0000370059B994200F0F1804FF00008059B68
:1092D00013603B78012B00F09B80844B00221A70B6
:1092E00009990A9B01F108029B1A002B67DD01F125
:1092F0000909B35CE370A5EB0905043DEDB2002B51
:1093000040F08B80069B13F00F03079300F0308131
:109310000123704F3A789B0043F0020322F00602CB
:1093200013433B7010E76F4B714A1B680593714BF9
:109330000C9208EE103A00230B93984641E66E4AD1
:109340006B4B386812880093611C6A4B6B4E01F0BE
:1093500033FAA379617927796948E27A1B0443EAF1
:1093600001233B4367490360237BD4F8070008606F
:1093700013F00F03C2F3021102F00F0286F821105E
:1093800086F8282066D04FF47A7202FB03F39A180D
:109390005249336108785C4B726110A9113D1093FA
:1093A0008DF8445002F06AF8584B594A5B78737054
:1093B00000210123474F517088F80030C4E6069B16
:1093C0001B0711D1B8F1000FA2D1069B13F02005A5
:1093D00040F0A8804F4A504B12781B783D719A425A
:1093E00000F2E1802B4694E75B4630460821FEF709
:1093F000CFFBE7E70222D8F824302270059A934287
:1094000000F09880059BC8F824304FF0000860E712
:10941000069B98067FF564AF5FE7069B190740F04F
:10942000BC803E49059B01934FF0010B06EB090000
:1094300002910E460C9ACDF800B05346294601F031
:109440006FF9B8F1000F7FF463AFA660257384F85D
:109450000DB0BAE74FF4FA624FF47A7398E71B4DF8
:109460001B4E2B68327843F040030C212B60617057
:10947000002A3FF4CEAEFBE5144D154E2B68327832
:1094800043F040030B212B606170002A3FF4C1AE12
:10949000EEE5012303702370059B99427FF415AF1D
:1094A000B3F1000818BF4FF0010810E7002B3FF49C
:1094B0000CAF064D064E2B68327843F0400308216E
:1094C0002B606170002A3FF4A4AED1E5E06E00206D
:1094D0002B720020686E0020C0720020DC6E00201D
:1094E0006C730020F470002024710020E1720020D1
:1094F0004C70002060700020F87000206C6E00201E
:109500002C6F00205C70002039710020A46E0020B8
:10951000006F002062600020606000202C7100203D
:10952000306F0020012322483B71A374FDF770FCCB
:109530000023EEE6002A3FF465AF1E4D1E4E2B6859
:10954000327843F0400308212B606170002A3FF419
:1095500060AE1748FDF75CFC3378002B3FF459AE42
:109560002B68164A23F004032B600B9B137050E604
:10957000059B019306EB09000121114E009118EEA5
:10958000102A53462946029601F0CAF807995B460D
:109590002A463046FEF7FCFA14E75B4608213046BF
:1095A000FEF7F6FA3DE70248FDF732FC2B46B0E63F
:1095B000DC700020E06E00202B720020D8700020AC
:1095C0002C710020002800F040812DE9F0411F4659
:1095D000036886B00446002B00F033814368002BFB
:1095E00000F02F818368002B00F02B811046884605
:1095F000164601F08FFE002800F01F81944D954A19
:109600009549964B14602E70954AC1F800803046FB
:1096100000261E609349944BDFF8B8E2DFF8B8C229
:109620001670924C924A0E604FF0010801A91F700B
:109630000B238EF800608CF80060266082F80080B2
:109640008DF8043001F06CFE03469B1B894A287894
:10965000894C8A4F18BF0123137001A908238DF884
:10966000043001F05DFE034601A92370287805232C
:109670008DF8043001F054FE034601A96370287888
:109680000C238DF8043001F04BFE034601A9E36082
:1096900028780D238DF8043001F042FE034601A91D
:1096A000236128780E238DF8043001F039FE03463B
:1096B00001A9636128780F238DF8043001F030FE92
:1096C000034601A9A361287810238DF8043001F026
:1096D00027FE034601A9E361287813238DF804309F
:1096E00001F01EFE034601A984F8213028781423D6
:1096F0008DF8043001F014FE034601A96362287856
:1097000015238DF8043001F00BFE034601A984F8FF
:10971000283028781A238DF8043001F001FE034622
:1097200001A984F82C3028781B238DF8043001F02F
:10973000F7FD034601A984F82D3028781C238DF805
:10974000043001F0EDFD034601A9236328781D23B1
:109750008DF8043001F0E4FD314603462878636358
:1097600001F034FED4E90303D4E905123B61E36957
:10977000F860C7E906230A207961062184F8208071
:1097800087F820806060786021723972FEF768F98E
:109790003B493C483C4CFDF7E1FA3A48FA21FDF7D9
:1097A0003FFB3A493A48FDF7D9FA3A493A48FDF7BA
:1097B000D5FA3A493A48FDF7D1FA3A493A48FDF71D
:1097C000CDFAFDF73DFB01463848394B0360394B74
:1097D0008360394B0361394B394A4360394BC3606D
:1097E000236811609847A36998470DF011F9364A2C
:1097F000236E82F8008040469847344B3A6B796B71
:1098000097F801C003923F7804910DF1030202A979
:1098100028781D882E4B8DF809C08DF803608DF8CF
:1098200008608DF80A70ADF8145001F037FF236B13
:109830009847304606B0BDE8F0810A2006B0BDE882
:10984000F081032006B0BDE8F0810320704700BF1F
:10985000DC6E00203472002028710020E06E0020B1
:10986000307200202C720020BC720020E4720020B4
:10987000E0720020E86E0020A46E00206C6E0020D4
:10988000658B0200C0720020144B0400D58A0200D0
:10989000C07000201581020090700020A981020094
:1098A000A8700020457B0200DC7000200C6F0020B7
:1098B000D57F0200D58E020039830200F9820200B2
:1098C000E87200206582020044700020DA720020F5
:1098D000E46E0020686E0020FA7000202DE9F04F41
:1098E000DFF808B1DFF808A13C4B9AF800209BF89C
:1098F000004089B014445A781B788DF80A208DF8FE
:109900000B30002965D0364E364A3388DFF8E480C4
:1099100096F82CC0DFF8E0908DF81EC00D46324955
:109920000978009212688DF815105BBAADF81C30FA
:109930004FF0000C0DF10B03069205A90DF10A0280
:10994000074698F800008DF814C001F0EDFD96F878
:109950002C2099F800309DF80A108DF80E2009226D
:10996000E4B28DF80D108DF80C2013B10A238DF898
:109970000C3098F8000003A901F0D2FCC0B2A0425C
:10998000687023D200238BF800308AF800302870EA
:1099900096F82C2099F800309DF90A108DF81220C5
:1099A00009228DF811108DF8102013B10A238DF8BB
:1099B000103098F8000004A901F0B2FC80B2B8425F
:1099C00034BF0820002009B0BDE8F08F001BC0B2F2
:1099D000DDE7032009B0BDE8F08F00BFA46E0020D2
:1099E0006C6E0020306F00206F730020E172002049
:1099F0006C730020DC6E0020FA700020B8B110B546
:109A00000446007882B01D2800F2B080DFE800F044
:109A1000AAA5A09B96928E89848179716E635D5808
:109A2000534E49443F3A35302B26211C1711032051
:109A300070474F4B5B6B6360002002B010BD4C4B16
:109A40001B7A23710020F8E7494B5B6863600020B4
:109A5000F3E7484B1B6863600020EEE7464B1B684A
:109A600063600020E9E7454B1B6863600020E4E782
:109A7000434B1B7823710020DFE73D4B1B7823719C
:109A80000020DAE73A4B5B7823710020D5E73C4BA6
:109A90005B7823710020D0E7354BDB6963600020E1
:109AA000CBE7334B9B6963600020C6E7304B5B69B3
:109AB00063600020C1E72E4B1B6963600020BCE798
:109AC0002B4BDB6863600020B7E7294B93F820300D
:109AD00023710020B1E72B4A172310788DF804304A
:109AE00001A901F01DFC60600020A6E7254A1623AD
:109AF000F3E7254B93E80300043484E803000020D7
:109B00009BE7224B93E80300043484E80300002021
:109B100093E71C4A1923E0E71D4B1B7823710020B3
:109B20008BE71C4B1B782371002086E71A4B636080
:109B3000002082E7194B636000207EE7184B1B680A
:109B40006360002079E7174B1B686360002074E7AF
:109B5000154B1B78237100206FE7144B1B78237182
:109B600000206AE7124B1B78237166E7022064E746
:109B70006C6E0020B8720020F47000204870002045
:109B8000A46E0020DC6E0020C86E0020906E0020C5
:109B9000FA700020447000204C700020607000209B
:109BA0005C7000202C6F00206F730020646E00201A
:109BB000BC720020F0B585B0002838D09F4B1B68E0
:109BC000DB0724D4057804461D2D00F28E81DFE8E2
:109BD00015F07D01780173016E0169015F01550186
:109BE0002D0128018C01DC00C400B7002200AD006B
:109BF000A800A3009E0099009400830072006100F9
:109C00004F004A0045008C013E003700320001251C
:109C1000284605B0F0BD8A4A4368029310780123B4
:109C200002A98DF80C3001F053FC002830D1032537
:109C3000284605B0F0BD834B42685A630025E7E72C
:109C40008149804A03790B7213720025E0E77E494F
:109C50007C4A43684B6053600025D9E77B4B4268E0
:109C60001A600025D4E77A4B42681A600025CFE7D6
:109C7000734A037910788DF8083008220DEB020141
:109C800001F0CEFB0028D2D06F4B9DF808201A704F
:109C90000025BDE76A4A037910788DF8083007225D
:109CA00002A901F0BDFB0028C1D0664B9DF8082039
:109CB0001A700025ACE7624A037910788DF80830F5
:109CC000042202A901F0ACFB0028B0D05D4B9DF846
:109CD00008205A7000259BE7594A037910788DF8BF
:109CE0000830052202A901F09BFB00289FD0564BAB
:109CF0009DF808205A7000258AE7524B4268DA61C5
:109D0000002585E74F4B42689A61002580E74D4B5F
:109D100042685A6100257BE74A4B42681A61002578
:109D200076E7484B4268DA60002571E703795A1EEE
:109D30000E2A3FF67CAF434A002582F8203067E7C1
:109D40003F4A436802931078002302A98DF80C3033
:109D500001F0BEFB00289BD169E73A4A384B92F8E4
:109D60002D2018788DF80920237A8DF808300622E6
:109D700002A901F055FB00283FF459AFD4E90101D5
:109D8000344B002583E8030042E72E4D2C4E95F816
:109D90002D20237A8DF8092030788DF8083006229E
:109DA00002A901F03DFB00283FF441AF2A4BA16816
:109DB0001A78606805F12403022A83E803007FF41F
:109DC00067AF264B1B78012B7FF462AF244C0094C5
:109DD00030786B682A7A95F9281001F0EBFB214B5B
:109DE000214A1B78696A237040F20113307895F894
:109DF0002D70167861601D4A63822146277466744F
:109E000001F01EFC00283FF412AFA37C002B78D198
:109E1000174BE8689B6B9847164BE27C1A7000253D
:109E2000F6E6114B02791A700025F1E6104B124A42
:109E300000791B6E107000259847E9E6E06E00205F
:109E4000DC6E00206C6E0020A46E0020F4700020F8
:109E500048700020C86E0020BC720020646E002094
:109E6000107100206E730020FA70002074700020C2
:109E7000144B04006D7300204470002041680029D9
:109E80003FF4D5AE214810220CF0E8FD0025BFE6D6
:109E9000416800293FF4CBAE1D4810220CF0DEFDD6
:109EA0000025B5E61B4B42681A600025B0E61A4B48
:109EB00042681A600025ABE6184B02791A7000253B
:109EC000A6E6174B02791A700025A1E60379154A18
:109ED000012B137011D0022B09D0002B7FF498AE08
:109EE000114A126B1D46904792E6022590E60F4BF1
:109EF00000221A70FEF758F98AE60B4B1B6B984745
:109F000086E6094B00209B6B984785E74C70002044
:109F1000607000205C7000202C6F00206F730020A8
:109F2000646E0020BC720020144B04002B720020D1
:109F3000002800F0C980F0B5664D296811F00101D4
:109F400089B002D0012009B0F0BD634E04460C2256
:109F500030460CF0D1FD207801237370032800F205
:109F6000B580DFE800F0563D1E025C4A5C4913787C
:109F70004F6CA06894F90C1043F00803137003238E
:109F8000A2883370B847FA215648FCF749FF554874
:109F9000FCF72EFF2B68002043F001032B6009B073
:109FA000F0BD4E4A50491378A088504FADF81C00C0
:109FB00043F008034E483C7813700A6B4B6B8DF8E6
:109FC000104005924C780A78069300788DF811407D
:109FD000022304A98DF81220337001F037FDD2E777
:109FE000444B3E4C1B78444F22783978C3F18003B0
:109FF000DBB242F0080201258B422270357057D93E
:10A000003E4A3F4B02205054294439701D700020B5
:10A0100099E72D6815F0100594D16368002B50D096
:10A02000A268002A4DD0E16800294AD0207C00288F
:10A0300047D02A4C35702778DFF8ECC08DF80850EF
:10A0400047F0080626702F4ECCF8003032602E4BB9
:10A050002E4E2F4F187039603570FDF701FD3378A3
:10A06000234A2C4F1078013304A9ADF8103001F0C9
:10A0700051FC294B1C491B7800952E464FF0020CD1
:10A0800063F3C71648702B462A4603A902A887F82F
:10A0900000C08DF80C60FEF795F948B91F4B204AB7
:10A0A00098801268DA60FEF7F1FB00283FF44BAFAE
:10A0B00022781C49002363F3C30222700B7009B09D
:10A0C000F0BD032009B0F0BD03207047034C02200F
:10A0D000EEE700BFE06E0020006F0020686E0020F9
:10A0E000144B0400C07200206C6E00206E730020C0
:10A0F000DC6E00206C730020E172002038720020BA
:10A10000DD720020386F0020E072002030720020E5
:10A110003C6F0020646E00206F730020EC6E002006
:10A12000487000202B72002040700020002800F0B2
:10A13000B5802DE9F04F5A4B1D6815F0110587B019
:10A1400003D0012007B0BDE8F08F564E8DF80850BF
:10A1500004461422294630460CF0CEFC237852499E
:10A160000122934272700A7014D0032B00F0878092
:10A17000002B73D04D494E4B087893F82C308DF856
:10A18000142005A98DF8163001F0CAF8022007B096
:10A19000BDE8F08F474A9DF80830E17B117004223A
:10A1A00062F347132579D4F808A0B4F80CB094F9F9
:10A1B0000E808DF808303E4F3C4B97F82C20DFF88E
:10A1C00004918DF8162005A9012218788DF8142025
:10A1D00001F0A6F899F80010B1B95FFA88F8334B8E
:10A1E000804538BF80460422187897F82C308DF8C7
:10A1F000108004A98DF8123001F012F950B39DF8C7
:10A20000103099F800107B704FF0000761F3C7170A
:10A21000CDF800B053462A4603A902A88DF80C7069
:10A22000FEF7D0F880B9244BB0801B68F360FEF7CE
:10A230002DFB48B9214A21781378317043F001038E
:10A24000137007B0BDE8F08F1D4B00221A7007B0E5
:10A25000BDE8F08F032007B0BDE8F08F15499DF8E9
:10A2600008300A70022262F347132579D4F808A057
:10A27000B4F80CB094F90E808DF808309BE79DF887
:10A2800008300C49D4F804A0B4F808B094F90A8056
:10A290000A7043F0E0038DF808308CE70320704724
:10A2A000E06E0020EC6E002062600020DC6E00207A
:10A2B0006C6E00206060002048700020686E0020F6
:10A2C0002B7200206F73002010B5074B82B004463C
:10A2D0000B2218788DF8044001A901F0A1F808B10B
:10A2E000024B1C7002B010BDDC6E0020E86E002036
:10A2F00070B40A480A4E0B4D0B4C0C49012242F235
:10A3000010737270B3606A70AB606270A360427069
:10A3100070BC83604A708B60704700BFA8700020DB
:10A32000C0720020C070002090700020DC700020FF
:10A330002DE9F04182B0184C099F184D01921A0C7A
:10A340002272E3801A0E9DF82030627280463A0C29
:10A35000637128463B0E63730E462273E173678177
:10A360000CF064F801990E4F28460CF06FF8214666
:10A37000284610220CF070F8F2B2414628460CF044
:10A380006BF8294638460CF055F93B680A9A136079
:10A3900002B0BDE8F08100BF686000207473002047
:10A3A000807500202DE9F04F83B00C460D9EDFF83C
:10A3B00060829DF830A0019491460021F02205466C
:10A3C00091480E9FA3461C460CF096FB8E4A102126
:10A3D00048460BF023FF330E88F80D305B46200C07
:10A3E000210E320C0F2B88F805A0A8F80640A8F81B
:10A3F0000A6088F8080088F8091088F80C2040F2F4
:10A40000FE80824E804AABF110093146C9F30B1928
:10A410004FF0000BC2465FFA8BF31C01E4B201332C
:10A42000504688F80F300BF0F9FF2B5D30787749F4
:10A43000754A43403B55601C96F801C02B5C83EA8B
:10A440000C033B54A01C96F802C02B5C83EA0C035F
:10A450003B54E01C96F803C02B5C83EA0C033B548E
:10A46000201D96F804C02B5C83EA0C033B54601D4E
:10A4700096F805C02B5C83EA0C033B54A01D96F8AC
:10A4800006C02B5C83EA0C033B54E01D96F807C022
:10A490002B5C83EA0C033B5404F1080096F808C0D7
:10A4A0002B5C83EA0C033B5404F1090096F809C0C5
:10A4B0002B5C83EA0C033B5404F10A0C96F80AE087
:10A4C00015F80C3004F10B0083EA0E0307F80C308A
:10A4D0002B5C96F80BC083EA0C033B5404F10C0090
:10A4E00096F80CC02B5C83EA0C033B5404F10D007E
:10A4F00096F80DC02B5C83EA0C033B5404F10E006C
:10A5000096F80EC02B5C83EA0C033B540F3496F88C
:10A510000FC0285DD94580EA0C0038550BF1010BBE
:10A520007FF479AF019B09F10104240103F00F03CB
:10A530000193E4B209F1020913B903B0BDE8F08F49
:10A54000324E314A324888F80F9031460BF066FFA0
:10A55000221D07EB020EB64505EB02008CBF002161
:10A5600001213B1906F1040805EB040C434528BF03
:10A5700041F00101F44538BF83422CBF0120002087
:10A58000084247D00198411E042943D9DCF8001045
:10A59000326880084A4001281A600CD0DCF80410A8
:10A5A0007268022882EA01025A6004D0DCF80820AE
:10A5B000B1684A409A60019A22F003039BB2934229
:10A5C000BBD0E11816F803C0685C80EA0C00785430
:10A5D0005A1C019992B29142AFD9A118B05C6A5C41
:10A5E00042407A540233019A9BB29A42A5D91C4444
:10A5F000F25C2B5D53403B5503B0BDE8F08F019BEF
:10A600004FF00109002497E78C740020907500201A
:10A61000786000202B5D317801984B4001283B5534
:10A620008BD0631C7078E95C41400198F954022892
:10A6300083D0A31CB078E95C41400198F954032809
:10A640003FF47BAFE31CF078E95C41400198F9549A
:10A6500004283FF472AFAB5C3179052883EA01032B
:10A66000BB543FF46AAF631D7179EA5C062882EA45
:10A670000102FA543FF461AFA31DB179EA5C0728E7
:10A6800082EA0102FA543FF458AFE31DF179EA5C23
:10A69000082882EA0102FA543FF44FAF04F108039C
:10A6A000317AEA5C092882EA0102FA543FF445AFA4
:10A6B00004F10903717AEA5C0A2882EA0102FA5479
:10A6C0003FF43BAF04F10A03B17AEA5C0B2882EA5B
:10A6D0000102FA543FF431AF04F10B03F17AEA5C62
:10A6E0000C2882EA0102FA543FF427AF04F10C036C
:10A6F000317BEA5C0D2882EA0102FA543FF41DAF77
:10A7000004F10D03717BEA5C0E2882EA0102FA541F
:10A710003FF413AF0E34B27B2B5D53403B550CE737
:10A7200010B49DF8044001945DF8044BFFF73ABE65
:10A730002DE9F8430D4CDFF8388091460646204657
:10A740001D460F460BF072FE494620460BF07EFE7A
:10A75000FAB2314620460BF07FFE214640460BF010
:10A7600069FFD8F800302B60BDE8F88374730020CF
:10A7700080750020F8B5174604460E460D48F022B5
:10A7800000211D460CF0B8F90A4A102138460BF09A
:10A7900045FD084A294620460BF040FE0F2E00D802
:10A7A000F8BD05F1100104F11000024ABDE8F840BF
:10A7B0000BF034BE8C740020F0B5244C87B00D46ED
:10A7C000074616462046F0220021ADF806601E46D8
:10A7D0000CF092F92246384610210BF01FFD02A81A
:10A7E000102200210CF088F9012329460DF10900FF
:10A7F00006228DF808300CF031F90DF106010DF14B
:10A800000F0002220CF02AF92246314602A80BF072
:10A8100005FE02A8102200210CF06EF9022629463E
:10A820000DF1090006228DF808600CF017F9324688
:10A830000DF106010DF10F000CF010F90C992246F4
:10A8400002A80BF0EBFD07B0F0BD00BF8C74002038
:10A850000B4902780B6823F001030B604AB1012A0F
:10A8600006D1084B1B681B6A0BB10079184770476B
:10A870007047044B1B68DB69002BF8D0184700BFFA
:10A88000E06E0020C4750020037883B1012B0DD148
:10A89000427852B90D4A117839B182F84830037ABA
:10A8A00082F84930437A82F84A30704770474378DB
:10A8B0002BB1074B1B689B69002BF6D01847044B44
:10A8C0001B681B69002BF0D0184700BFEC750020F7
:10A8D000C475002043782BBBF0B5AC4C25788BB009
:10A8E00025B1B4F846300133A4F84630437BBBB100
:10A8F000C378E02B17D0027B81688DF819300024D3
:10A900008DF81820A24B8C541B68027C81688DF84E
:10A910001C20C289DB680591ADF81A2005A898476C
:10A920000BB0F0BD704735B9037B042B0ED09948AE
:10A93000FCF76EFAF4E7826813786370072BEFD8A0
:10A94000DFE803F0A3A09C97786DBA6483681A7857
:10A95000012AECD15A78012AE9D19A78012AE6D164
:10A96000DE78012EE3D140F201130227238002A8F2
:10A97000A4F84850A4F8465084F84A50A5702771AE
:10A980008DF80870FFF73AF8834B9DF80C201A7089
:10A9900002A88DF808708DF80C60FFF70BF92846B7
:10A9A000FFF792FC7D497B48FCF7D8F9794841F2E2
:10A9B0008831FCF735FA94F84830002B00F0DD8040
:10A9C00094F8492094F84A3084F8485040F20351F2
:10A9D0006670A180A271E371207901A9FEF77EFF64
:10A9E000002800F0BA80002303228DF8143007936A
:10A9F000ADF820308DF822206648FCF7F9F905A85B
:10AA0000FFF794FB2378002B8AD190E7037B032B7D
:10AA100074D0072B00F085800123637080E7012349
:10AA200005A88DF81430FFF783FA2378002B7FF404
:10AA300077AF7CE7037B2371F22B4FF004011D46B7
:10AA400028BFF225012B61717FF66AAF5278022B85
:10AA500002F10102A2717FF663AF514902238268BD
:10AA6000D25C0133DCB20132AC4201F8012FF6D3E3
:10AA700056E700220123A270637051E70123A370FF
:10AA800063704DE7022323714AE7434A12788DF839
:10AA900018200023022205A8A4F8463023708DF860
:10AAA0001420FFF787F83F4B1878FFF70DFC237849
:10AAB000002B7FF435AF3AE7374B1B788DF80C301D
:10AAC0000025022302A8A570A4F8465025708DF831
:10AAD0000830FFF76FF8334B1878FFF7F5FB324B70
:10AAE0008DF814500FCB0AAD05E90F0005A8FFF74C
:10AAF0001FFA2378002B7FF413AF18E702238DF899
:10AB000014305178937805A843EA0123ADF8183042
:10AB1000FFF70EFA237801226270002B7FF400AF5A
:10AB200005E703238DF814305178937843EA012325
:10AB3000ADF818301379D07851791B0243EA0043FD
:10AB40000B43642101FB03F3079393798DF82030C5
:10AB500005A8FFF7EDF92378DDE7A37843BB21795A
:10AB6000124A8DF81430E02003238DF81800ADF858
:10AB7000201007928DF822303EE76378012B27D012
:10AB8000042B7FF429AF0123637025E7EC750020C7
:10AB9000C475002038760020E8750020E5AB02007F
:10ABA000F275002076760020C8750020F17500202F
:10ABB000012321790A4A8DF81430E02040F603037E
:10ABC0008DF81800ADF820100792ADF8223013E789
:10ABD000B4F84630A37102221B1263712271FBE6A6
:10ABE000F175002010B52F4C94F8483086B04BB367
:10ABF000002340F2035094F8491094F84A2084F856
:10AC000048300123A080A171E2716370032001A983
:10AC1000FEF764FE20BBA37863BB22792249ADF81E
:10AC20001420E02003228DF808308DF80C000491E8
:10AC30008DF816201D48FCF7DBF802A8FFF776FA1E
:10AC400006B010BD6378012B24D0042B08BF01236C
:10AC5000207908BF637001A9FEF740FE0028DAD012
:10AC6000002303228DF808300493ADF814308DF8DA
:10AC70001620DFE723790C4AADF814300120E021DB
:10AC800040F603038DF808008DF80C100492ADF81F
:10AC90001630CFE7B4F84630A37102201B1263715F
:10ACA0002071B4E7EC750020F175002038760020A3
:10ACB0000246024B0068516803C370475876002073
:10ACC0000246024B0068516803C37047507600206B
:10ACD00010B40346044C59689A680068DB680FC4D6
:10ACE0005DF8044B704700BF8860002000B5494BF9
:10ACF0001B78013BDBB285B00022072BCDE9012296
:10AD0000039296BF444A0123D35C08B3834222D303
:10AD100002380A287AD8DFE800F06D67605A534D90
:10AD20004640390622000A2B1BD9FF23ADF80E300E
:10AD30003A48062201A903F01BFF3948062201A95F
:10AD400003F016FF374801A9062203F011FF012086
:10AD500005B05DF804FB002005B05DF804FB0C2B8A
:10AD60004FD0022BE4D801A92C48012203F000FFA8
:10AD700001A92B48012203F0FBFE2A4801A9012268
:10AD800003F0F6FE012005B05DF804FB092BE8D9BD
:10AD90004FF47F43ADF80C30CAE7082BE1D9FF230D
:10ADA000ADF80C30C4E7072BDBD94FF47F43ADF887
:10ADB0000A30BDE7062BD4D9FF23ADF80A30B7E738
:10ADC000052BCED94FF47F43ADF80830B0E7042B04
:10ADD000C7D9FF23ADF80830AAE7032BC1D94FF438
:10ADE0007F43ADF80630A3E7022BBCD9FF23ADF8B3
:10ADF00006309DE7012BB6D04FF47F42ADF804201A
:10AE0000AFE74FF47F43ADF80E3091E7FF22ADF886
:10AE10000420A6E779760020E4460400A07500200F
:10AE2000AC750020B87500202DE9F043C1B00EAC20
:10AE300084E80600054694E803009A4C9A4A9B4F22
:10AE40009B4E25609B4D91801060C1F307219DF8BA
:10AE500024213B709DF939809DF8207131702A7052
:10AE6000002B00F0B380944A944992F807C090797F
:10AE70005379CDF814C092F804C00490D0780393AD
:10AE800093780093CDE9010C20A85378127817F03D
:10AE9000FDF98B4A8B4992F807C090795379CDF828
:10AEA00014C092F804C00490D07803939378009370
:10AEB000CDE9010C10A85378127817F0E7F9824A0F
:10AEC0008249D0789378CDE90030D37B907B92F89B
:10AED0000DC00D93137B0C90D07ACDF82CC092F856
:10AEE0000AC00A93537A0990107ACDF820C092F8DC
:10AEF00007C00793937906905079CDF814C092F863
:10AF000004C0049353781278039030A8CDF808C099
:10AF100017F0BCF923686E491A686E486E4B6F4C87
:10AF20000A606F4A8260C0E900432A783B46FEF718
:10AF300049FB8146002840F0B1806A4C9DF83830CA
:10AF40002371204602232370FEF734FE142320468B
:10AF5000237084F80480FEF72DFE1523204623700D
:10AF600084F80480FEF726FE9DF83C3023711622FB
:10AF700020462270FEF71EFE9DF83A30237107220C
:10AF800020462270FEF716FE204684F800902771B6
:10AF9000FEF710FE3078FFF797F92B78022B79D067
:10AFA000082B73D0012B71D00120FFF79FFE2B7867
:10AFB0000B2B07D8DFE803F0550606060606060643
:10AFC000065C634E002041B0BDE8F0833C4A3D4939
:10AFD00092F807C090795379CDF814C092F804C064
:10AFE0000490D078039393780093CDE9010C10A8D6
:10AFF0005378127817F04AF93B4A3C49D078937855
:10B00000CDE90030D37B907B92F80DC00D93137B7C
:10B010000C90D07ACDF82CC092F80AC00A93537ADB
:10B020000990107ACDF820C092F807C00793937961
:10B0300006905079CDF814C092F804C00493537868
:10B040001278039020A8CDF808C017F01FF9284AFD
:10B05000284936E7042001F051FC002041B0BDE84A
:10B06000F083012001F04AFC002041B0BDE8F083EC
:10B07000022001F043FC002041B0BDE8F083032032
:10B0800001F03CFC002041B0BDE8F0830220FFF756
:10B090002DFE8CE70B20FFF729FE88E74FF0FF30ED
:10B0A00091E700BFC47500207076002077760020FD
:10B0B0007676002079760020507600207C450400CA
:10B0C00058760020AC45040088600020DC45040070
:10B0D000D8750020DC750020D5A8020051A8020018
:10B0E00089A8020060760020A86000203446040091
:10B0F000986000208C46040030B52249224A234B38
:10B10000234DD878234B244C2D7887B0CDE90212FB
:10B1100004938DF8140006AB13E90F0084E80F00C8
:10B1200000238DF8043025B101A8FEF701FF07B018
:10B1300030BD1A4C0323204623706560FEF73AFDAC
:10B14000174B04221B68227020466360FEF732FD15
:10B15000144B6360052220462270FEF72BFD062269
:10B16000114B227020466360FEF724FD0123204628
:10B1700023702371FEF71EFD0C4B1B681B6998475B
:10B1800007B030BD58760020507600207076002041
:10B190007776002088600020C87500206076002047
:10B1A0006C760020A860002098600020C475002004
:10B1B00000B585B0012301A88DF80430FEF71EFC10
:10B1C0009DF8080005B05DF804FB00BF234B1B7819
:10B1D000002B40D170B5224E337886B013B10120D8
:10B1E00006B070BD05460C46007901A9FEF776FB56
:10B1F000F0B90CB31B4B1C4A1B78527869798DF857
:10B200001620002B2A792B6804930CBF01240824F4
:10B2100001208DF817408DF808008DF80C10ADF85E
:10B22000142002A8FEF782FF10B901233370D7E77C
:10B230004FF0FF3006B070BD0B4B697958782A7912
:10B240002B688DF808408DF816008DF80C10ADF8BD
:10B2500014200493E5E74FF0FF307047EC750020B1
:10B2600078760020797600207076002030B585B0A1
:10B270000446002501A88DF80450FEF7BFFB9DF899
:10B280000800A04206D0012C1FD0022C05D0BCB172
:10B290004FF0FF35284605B030BD051E18BF01250B
:10B2A00001A86D428DF80840FEF784FC0028EFD11C
:10B2B000124B1B6820465B699847284605B030BD95
:10B2C00070B90546284605B030BD0128E2D001A876
:10B2D0008DF80840FEF76EFC05460028E8D0D7E759
:10B2E00001A88DF80840FEF765FC05460028CFD17F
:10B2F000024B1B685B699847CCE700BFC475002010
:10B30000034B012142F2107259709A60704700BFDE
:10B31000387600200C288CBF00200120704700BF29
:10B320000C2826D8DFE800F0070D101316191C1F93
:10B33000220707070A00084600F0F8BB084607F096
:10B340008BB9084601F042BB084602F00DB808462A
:10B3500002F0E2BC084603F01FBE084604F0CABC77
:10B36000084606F0C5BA084605F006BC084608F0CF
:10B3700047B80020704700BF0C2826D8DFE800F04F
:10B38000070D101316191C1F220707070A0008468D
:10B3900000F052BC084607F0C5B9084601F07EBB74
:10B3A000084602F043B8084602F01ABD084603F00A
:10B3B00057BE084604F002BD084606F0FBBA084630
:10B3C00005F044BC084608F07BB870470C2826D826
:10B3D000DFE800F0070D101316191C1F22070707DE
:10B3E0000A00084600F03EBC084607F0B1B908461E
:10B3F00001F06ABB084602F02FB8084602F006BD0D
:10B40000084603F043BE084604F0EEBC084606F0CA
:10B41000E7BA084605F030BC084608F067B8704740
:10B420000B4611460C2826D8DFE800F0070D101354
:10B4300016191C1F220707070A00184600F04CBC0B
:10B44000184607F0D9B9184601F0C4BB184602F0F7
:10B4500031B8184602F012BD184603F04FBE184628
:10B4600004F0FABC184606F00FBB184605F03CBCC9
:10B47000184608F0C1B80020704700BF0C2826D835
:10B48000DFE800F0070D101316191C1F220707072D
:10B490000A00084601F0A0B9084607F0D9B90846E5
:10B4A00001F0D2BB084602F02DB8084602F018BDE4
:10B4B000084603F055BE084604F000BD084606F0F5
:10B4C00009BB084605F04CBC084608F0D9B87047DF
:10B4D0000C2826D8DFE800F0070D101316191C1FE2
:10B4E000220707070A00084600F032BC084607F0AA
:10B4F0003FBA084601F0AABB084602F005B8084664
:10B5000002F07ABD084603F0B7BE084604F098BDC5
:10B51000084606F085BB084605F0AEBC084608F0B4
:10B52000B1B80020704700BF10B40C4611461A464F
:10B53000019B0C283AD8DFE800F00711161B2025E4
:10B540002A2F340707070C0020465DF8044B00F053
:10B5500019BC20465DF8044B07F024BA20465DF87C
:10B56000044B01F0A7BB20465DF8044B01F0E6BF99
:10B5700020465DF8044B02F059BD20465DF8044BAF
:10B5800003F094BE20465DF8044B04F073BD2046E2
:10B590005DF8044B06F05EBB20465DF8044B05F0F9
:10B5A00085BC20465DF8044B08F09EB800205DF88D
:10B5B000044B704710B40C4611461A46019B0C28E8
:10B5C0003AD8DFE800F00711161B20252A2F340790
:10B5D00007070C0020465DF8044B00F029BC20460C
:10B5E0005DF8044B07F020BA20465DF8044B01F0EB
:10B5F0009BBB20465DF8044B01F0D8BF20465DF8A8
:10B60000044B02F04BBD20465DF8044B03F086BEB0
:10B6100020465DF8044B04F065BD20465DF8044B00
:10B6200006F050BB20465DF8044B05F07BBC20467D
:10B630005DF8044B08F092B85DF8044B704700BF0A
:10B640000B4611460C2826D8DFE800F0070D101332
:10B6500016191C1F220707070A00184600F024BC11
:10B66000184607F01DBA184601F092BB184601F0C3
:10B67000D1BF184602F04EBD184603F08BBE1846E7
:10B6800004F06CBD184606F051BB184605F086BCA8
:10B69000184608F097B80020704700BF10B40C4659
:10B6A00011461A460C283AD8DFE800F00711161B9D
:10B6B00020252A2F340707070C0020465DF8044B8D
:10B6C00000F06CBC20465DF8044B07F063BA2046DE
:10B6D0005DF8044B01F0B0BB20465DF8044B01F06F
:10B6E000F5BF20465DF8044B02F08EBD20465DF8A4
:10B6F000044B03F0C9BE20465DF8044B04F0A8BD1E
:10B7000020465DF8044B06F063BB20465DF8044B11
:10B7100005F0BEBC20465DF8044B08F0A7B8002039
:10B720005DF8044B704700BF30B40C4611461A4612
:10B73000DDE902350C283AD8DFE800F00711161BC6
:10B7400020252A2F340707070C000295204630BC1D
:10B7500000F0B6BC0295204630BC07F0ADBA0295A9
:10B76000204630BC01F0DCBB0295204630BC02F024
:10B770000DB80295204630BC02F0D8BD0295204697
:10B7800030BC03F013BF0295204630BC04F0F2BD7C
:10B790000295204630BC06F0A7BB0295204630BC7F
:10B7A00005F008BD0295204630BC08F0EBB800203B
:10B7B00030BC70470C2826D8DFE800F0070D1013C6
:10B7C00016191C1F220707070A00084600F0BEBD15
:10B7D000084607F0DBBB084601F066BC084602F0ED
:10B7E00041B9084602F00CBF084604F049B80846C3
:10B7F00004F02ABF084606F0E1BC084605F044BE46
:10B80000084608F083B90020704700BF0C2826D8EE
:10B81000DFE800F0070D101316191C1F2207070799
:10B820000A00084600F0B6BD084607F0D3BB08463C
:10B8300001F07ABC084602F04FB9084602F004BF96
:10B84000084604F041B8084604F022BF084606F056
:10B85000D9BC084605F03CBE084608F09FB9002058
:10B86000704700BF0C2826D8DFE800F0070D101342
:10B8700016191C1F220707070A00084600F016BE0B
:10B88000084607F043BC084601F050BC084602F0E9
:10B8900025B9084602F074BF084604F0B1B808465E
:10B8A00004F0DCBF084606F051BD084605F0ACBE0A
:10B8B000084608F075B90020704700BF0C2826D84C
:10B8C000DFE800F0070D101316191C1F22070707E9
:10B8D0000A00084600F0ECBD084607F019BC08460F
:10B8E00001F028BC084602F0FDB8084602F04CBF43
:10B8F000084604F089B8084604F0B4BF084606F0CC
:10B9000029BD084605F084BE084608F04DB9002060
:10B91000704700BF0C2826D8DFE800F0070D101391
:10B9200016191C1F220707070A00084600F0F6BD7B
:10B93000084607F023BC084601F0FEBB084602F0AB
:10B94000D3B8084602F056BF084604F093B808463C
:10B9500004F0D2BF084606F035BD084605F08EBE9D
:10B96000084608F023B90020704700BF0C2826D8ED
:10B97000DFE800F0070D101316191C1F2207070738
:10B980000A00084600F0CCBD084607F02BBC08466C
:10B9900001F0E8BB084602F0DBB8084602F05EBFE3
:10B9A000084604F09BB8084604F0DABF084606F0E3
:10B9B0003DBD084605F096BE084608F00BB9704735
:10B9C00010B40C4611461A46019B0C283AD8DFE801
:10B9D00000F00711161B20252A2F340707070C003B
:10B9E00020465DF8044B00F0B7BD20465DF8044BDF
:10B9F00007F014BC20465DF8044B01F0CFBB204695
:10BA00005DF8044B02F0C0B820465DF8044B02F02C
:10BA100041BF20465DF8044B04F07CB820465DF839
:10BA2000044B04F0B9BF20465DF8044B06F01ABD84
:10BA300020465DF8044B05F071BE20465DF8044BCE
:10BA400008F0E4B800205DF8044B70470C2826D8B5
:10BA5000DFE800F0070D101316191C1F2207070757
:10BA60000A00084600F010BF084607F09BBC0846D5
:10BA700001F046BC084602F021B9084602F0CCBFEE
:10BA8000084604F009B9084605F048B8084606F02B
:10BA90009FBD084605F0F8BE084608F069B9704732
:10BAA00010B40C4611461A460C283AD8DFE800F0CC
:10BAB0000711161B20252A2F340707070C002046E4
:10BAC0005DF8044B00F008BF20465DF8044B07F01A
:10BAD00091BC20465DF8044B01F03ABC20465DF86D
